{"abi":[{"type":"constructor","inputs":[{"name":"_name","type":"string","internalType":"string"},{"name":"_symbol","type":"string","internalType":"string"},{"name":"_decimals","type":"uint8","internalType":"uint8"}],"stateMutability":"nonpayable"},{"type":"function","name":"_validTransfer","inputs":[{"name":"to","type":"address","internalType":"address"}],"outputs":[{"name":"","type":"bool","internalType":"bool"}],"stateMutability":"nonpayable"},{"type":"function","name":"allowance","inputs":[{"name":"owner","type":"address","internalType":"address"},{"name":"spender","type":"address","internalType":"address"}],"outputs":[{"name":"","type":"uint256","internalType":"uint256"}],"stateMutability":"view"},{"type":"function","name":"approve","inputs":[{"name":"spender","type":"address","internalType":"address"},{"name":"value","type":"uint256","internalType":"uint256"}],"outputs":[{"name":"","type":"bool","internalType":"bool"}],"stateMutability":"nonpayable"},{"type":"function","name":"balanceOf","inputs":[{"name":"account","type":"address","internalType":"address"}],"outputs":[{"name":"","type":"uint256","internalType":"uint256"}],"stateMutability":"view"},{"type":"function","name":"blacklisted","inputs":[{"name":"","type":"address","internalType":"address"}],"outputs":[{"name":"","type":"bool","internalType":"bool"}],"stateMutability":"view"},{"type":"function","name":"decimals","inputs":[],"outputs":[{"name":"","type":"uint8","internalType":"uint8"}],"stateMutability":"view"},{"type":"function","name":"name","inputs":[],"outputs":[{"name":"","type":"string","internalType":"string"}],"stateMutability":"view"},{"type":"function","name":"setBlacklist","inputs":[{"name":"target","type":"address","internalType":"address"},{"name":"isBlacklisted","type":"bool","internalType":"bool"}],"outputs":[],"stateMutability":"nonpayable"},{"type":"function","name":"symbol","inputs":[],"outputs":[{"name":"","type":"string","internalType":"string"}],"stateMutability":"view"},{"type":"function","name":"totalSupply","inputs":[],"outputs":[{"name":"","type":"uint256","internalType":"uint256"}],"stateMutability":"view"},{"type":"function","name":"transfer","inputs":[{"name":"to","type":"address","internalType":"address"},{"name":"amount","type":"uint256","internalType":"uint256"}],"outputs":[{"name":"","type":"bool","internalType":"bool"}],"stateMutability":"nonpayable"},{"type":"function","name":"transferFrom","inputs":[{"name":"from","type":"address","internalType":"address"},{"name":"to","type":"address","internalType":"address"},{"name":"amount","type":"uint256","internalType":"uint256"}],"outputs":[{"name":"","type":"bool","internalType":"bool"}],"stateMutability":"nonpayable"},{"type":"event","name":"Approval","inputs":[{"name":"owner","type":"address","indexed":true,"internalType":"address"},{"name":"spender","type":"address","indexed":true,"internalType":"address"},{"name":"value","type":"uint256","indexed":false,"internalType":"uint256"}],"anonymous":false},{"type":"event","name":"Transfer","inputs":[{"name":"from","type":"address","indexed":true,"internalType":"address"},{"name":"to","type":"address","indexed":true,"internalType":"address"},{"name":"value","type":"uint256","indexed":false,"internalType":"uint256"}],"anonymous":false},{"type":"error","name":"ERC20InsufficientAllowance","inputs":[{"name":"spender","type":"address","internalType":"address"},{"name":"allowance","type":"uint256","internalType":"uint256"},{"name":"needed","type":"uint256","internalType":"uint256"}]},{"type":"error","name":"ERC20InsufficientBalance","inputs":[{"name":"sender","type":"address","internalType":"address"},{"name":"balance","type":"uint256","internalType":"uint256"},{"name":"needed","type":"uint256","internalType":"uint256"}]},{"type":"error","name":"ERC20InvalidApprover","inputs":[{"name":"approver","type":"address","internalType":"address"}]},{"type":"error","name":"ERC20InvalidReceiver","inputs":[{"name":"receiver","type":"address","internalType":"address"}]},{"type":"error","name":"ERC20InvalidSender","inputs":[{"name":"sender","type":"address","internalType":"address"}]},{"type":"error","name":"ERC20InvalidSpender","inputs":[{"name":"spender","type":"address","internalType":"address"}]}],"bytecode":{"object":"0x60806040523480156200001157600080fd5b5060405162000b9638038062000b96833981016040819052620000349162000139565b828260036200004483826200024d565b5060046200005382826200024d565b50506006805460ff191660ff93909316929092179091555062000319915050565b634e487b7160e01b600052604160045260246000fd5b600082601f8301126200009c57600080fd5b81516001600160401b0380821115620000b957620000b962000074565b604051601f8301601f19908116603f01168101908282118183101715620000e457620000e462000074565b816040528381526020925086838588010111156200010157600080fd5b600091505b8382101562000125578582018301518183018401529082019062000106565b600093810190920192909252949350505050565b6000806000606084860312156200014f57600080fd5b83516001600160401b03808211156200016757600080fd5b62000175878388016200008a565b945060208601519150808211156200018c57600080fd5b506200019b868287016200008a565b925050604084015160ff81168114620001b357600080fd5b809150509250925092565b600181811c90821680620001d357607f821691505b602082108103620001f457634e487b7160e01b600052602260045260246000fd5b50919050565b601f8211156200024857600081815260208120601f850160051c81016020861015620002235750805b601f850160051c820191505b8181101562000244578281556001016200022f565b5050505b505050565b81516001600160401b0381111562000269576200026962000074565b62000281816200027a8454620001be565b84620001fa565b602080601f831160018114620002b95760008415620002a05750858301515b600019600386901b1c1916600185901b17855562000244565b600085815260208120601f198616915b82811015620002ea57888601518255948401946001909101908401620002c9565b5085821015620003095787850151600019600388901b60f8161c191681555b5050505050600190811b01905550565b61086d80620003296000396000f3fe608060405234801561001057600080fd5b50600436106100b45760003560e01c806370a082311161007157806370a082311461016f57806395d89b41146101985780639869d791146101a0578063a9059cbb146101cd578063dbac26e9146101e0578063dd62ed3e1461020357600080fd5b806306fdde03146100b9578063095ea7b3146100d7578063153b0d1e146100fa57806318160ddd1461013557806323b872dd14610147578063313ce5671461015a575b600080fd5b6100c161023c565b6040516100ce9190610682565b60405180910390f35b6100ea6100e53660046106ec565b6102ce565b60405190151581526020016100ce565b610133610108366004610716565b6001600160a01b03919091166000908152600560205260409020805460ff1916911515919091179055565b005b6002545b6040519081526020016100ce565b6100ea610155366004610752565b6102e8565b60065460405160ff90911681526020016100ce565b61013961017d36600461078e565b6001600160a01b031660009081526020819052604090205490565b6100c1610325565b6100ea6101ae36600461078e565b6001600160a01b031660009081526005602052604090205460ff161590565b6100ea6101db3660046106ec565b610334565b6100ea6101ee36600461078e565b60056020526000908152604090205460ff1681565b6101396102113660046107a9565b6001600160a01b03918216600090815260016020908152604080832093909416825291909152205490565b60606003805461024b906107dc565b80601f0160208091040260200160405190810160405280929190818152602001828054610277906107dc565b80156102c45780601f10610299576101008083540402835291602001916102c4565b820191906000526020600020905b8154815290600101906020018083116102a757829003601f168201915b5050505050905090565b6000336102dc818585610367565b60019150505b92915050565b6001600160a01b03821660009081526005602052604081205460ff16156103115750600061031e565b61031c848484610379565b505b9392505050565b60606004805461024b906107dc565b6001600160a01b03821660009081526005602052604081205460ff161561035d575060006102e2565b61031e838361039d565b61037483838360016103ab565b505050565b600033610387858285610486565b6103928585856104fe565b506001949350505050565b6000336102dc8185856104fe565b6001600160a01b0384166103da5760405163e602df0560e01b8152600060048201526024015b60405180910390fd5b6001600160a01b03831661040457604051634a1406b160e11b8152600060048201526024016103d1565b6001600160a01b038085166000908152600160209081526040808320938716835292905220829055801561048057826001600160a01b0316846001600160a01b03167f8c5be1e5ebec7d5bd14f71427d1e84f3dd0314c0f7b2291e5b200ac8c7c3b9258460405161047791815260200190565b60405180910390a35b50505050565b6001600160a01b03838116600090815260016020908152604080832093861683529290522054600019811461048057818110156104ef57604051637dc7a0d960e11b81526001600160a01b038416600482015260248101829052604481018390526064016103d1565b610480848484840360006103ab565b6001600160a01b03831661052857604051634b637e8f60e11b8152600060048201526024016103d1565b6001600160a01b0382166105525760405163ec442f0560e01b8152600060048201526024016103d1565b6103748383836001600160a01b0383166105835780600260008282546105789190610816565b909155506105f59050565b6001600160a01b038316600090815260208190526040902054818110156105d65760405163391434e360e21b81526001600160a01b038516600482015260248101829052604481018390526064016103d1565b6001600160a01b03841660009081526020819052604090209082900390555b6001600160a01b03821661061157600280548290039055610630565b6001600160a01b03821660009081526020819052604090208054820190555b816001600160a01b0316836001600160a01b03167fddf252ad1be2c89b69c2b068fc378daa952ba7f163c4a11628f55a4df523b3ef8360405161067591815260200190565b60405180910390a3505050565b600060208083528351808285015260005b818110156106af57858101830151858201604001528201610693565b506000604082860101526040601f19601f8301168501019250505092915050565b80356001600160a01b03811681146106e757600080fd5b919050565b600080604083850312156106ff57600080fd5b610708836106d0565b946020939093013593505050565b6000806040838503121561072957600080fd5b610732836106d0565b91506020830135801515811461074757600080fd5b809150509250929050565b60008060006060848603121561076757600080fd5b610770846106d0565b925061077e602085016106d0565b9150604084013590509250925092565b6000602082840312156107a057600080fd5b61031e826106d0565b600080604083850312156107bc57600080fd5b6107c5836106d0565b91506107d3602084016106d0565b90509250929050565b600181811c908216806107f057607f821691505b60208210810361081057634e487b7160e01b600052602260045260246000fd5b50919050565b808201808211156102e257634e487b7160e01b600052601160045260246000fdfea2646970667358221220e1521b1818940ea30c82ed90237f717e8f2deee0232d40bcbedc57b3b0c37b2f64736f6c63430008140033","linkReferences":{}},"methodIdentifiers":{"_validTransfer(address)":"9869d791","allowance(address,address)":"dd62ed3e","approve(address,uint256)":"095ea7b3","balanceOf(address)":"70a08231","blacklisted(address)":"dbac26e9","decimals()":"313ce567","name()":"06fdde03","setBlacklist(address,bool)":"153b0d1e","symbol()":"95d89b41","totalSupply()":"18160ddd","transfer(address,uint256)":"a9059cbb","transferFrom(address,address,uint256)":"23b872dd"},"id":43}